{
  "contractName": "AuctionRepository",
  "abi": [
    {
      "anonymous": false,
      "inputs": [
        {
          "indexed": false,
          "internalType": "address",
          "name": "_owner",
          "type": "address"
        },
        {
          "indexed": false,
          "internalType": "uint256",
          "name": "_auctionId",
          "type": "uint256"
        }
      ],
      "name": "AuctionCanceled",
      "type": "event"
    },
    {
      "anonymous": false,
      "inputs": [
        {
          "indexed": false,
          "internalType": "address",
          "name": "_owner",
          "type": "address"
        },
        {
          "indexed": false,
          "internalType": "uint256",
          "name": "_auctionId",
          "type": "uint256"
        }
      ],
      "name": "AuctionCreated",
      "type": "event"
    },
    {
      "anonymous": false,
      "inputs": [
        {
          "indexed": false,
          "internalType": "address",
          "name": "_owner",
          "type": "address"
        },
        {
          "indexed": false,
          "internalType": "uint256",
          "name": "_auctionId",
          "type": "uint256"
        }
      ],
      "name": "AuctionFinalized",
      "type": "event"
    },
    {
      "anonymous": false,
      "inputs": [
        {
          "indexed": false,
          "internalType": "address",
          "name": "_from",
          "type": "address"
        },
        {
          "indexed": false,
          "internalType": "uint256",
          "name": "_auctionId",
          "type": "uint256"
        }
      ],
      "name": "BidSuccess",
      "type": "event"
    },
    {
      "inputs": [
        {
          "internalType": "uint256",
          "name": "",
          "type": "uint256"
        },
        {
          "internalType": "uint256",
          "name": "",
          "type": "uint256"
        }
      ],
      "name": "auctionBids",
      "outputs": [
        {
          "internalType": "address payable",
          "name": "from",
          "type": "address"
        },
        {
          "internalType": "uint256",
          "name": "amount",
          "type": "uint256"
        }
      ],
      "stateMutability": "view",
      "type": "function",
      "constant": true
    },
    {
      "inputs": [
        {
          "internalType": "address",
          "name": "",
          "type": "address"
        },
        {
          "internalType": "uint256",
          "name": "",
          "type": "uint256"
        }
      ],
      "name": "auctionOwner",
      "outputs": [
        {
          "internalType": "uint256",
          "name": "",
          "type": "uint256"
        }
      ],
      "stateMutability": "view",
      "type": "function",
      "constant": true
    },
    {
      "inputs": [
        {
          "internalType": "uint256",
          "name": "",
          "type": "uint256"
        }
      ],
      "name": "auctions",
      "outputs": [
        {
          "internalType": "string",
          "name": "name",
          "type": "string"
        },
        {
          "internalType": "uint256",
          "name": "blockDeadline",
          "type": "uint256"
        },
        {
          "internalType": "uint256",
          "name": "startPrice",
          "type": "uint256"
        },
        {
          "internalType": "string",
          "name": "metadata",
          "type": "string"
        },
        {
          "internalType": "uint256",
          "name": "deedId",
          "type": "uint256"
        },
        {
          "internalType": "address",
          "name": "deedRepositoryAddress",
          "type": "address"
        },
        {
          "internalType": "address payable",
          "name": "owner",
          "type": "address"
        },
        {
          "internalType": "bool",
          "name": "active",
          "type": "bool"
        },
        {
          "internalType": "bool",
          "name": "finalized",
          "type": "bool"
        }
      ],
      "stateMutability": "view",
      "type": "function",
      "constant": true
    },
    {
      "inputs": [],
      "name": "getCount",
      "outputs": [
        {
          "internalType": "uint256",
          "name": "",
          "type": "uint256"
        }
      ],
      "stateMutability": "view",
      "type": "function",
      "constant": true
    },
    {
      "inputs": [
        {
          "internalType": "uint256",
          "name": "_auctionId",
          "type": "uint256"
        }
      ],
      "name": "getBidsCount",
      "outputs": [
        {
          "internalType": "uint256",
          "name": "",
          "type": "uint256"
        }
      ],
      "stateMutability": "view",
      "type": "function",
      "constant": true
    },
    {
      "inputs": [
        {
          "internalType": "address",
          "name": "_owner",
          "type": "address"
        }
      ],
      "name": "getAuctionsOf",
      "outputs": [
        {
          "internalType": "uint256[]",
          "name": "",
          "type": "uint256[]"
        }
      ],
      "stateMutability": "view",
      "type": "function",
      "constant": true
    },
    {
      "inputs": [
        {
          "internalType": "uint256",
          "name": "_auctionId",
          "type": "uint256"
        }
      ],
      "name": "getCurrentBid",
      "outputs": [
        {
          "internalType": "uint256",
          "name": "",
          "type": "uint256"
        },
        {
          "internalType": "address",
          "name": "",
          "type": "address"
        }
      ],
      "stateMutability": "view",
      "type": "function",
      "constant": true
    },
    {
      "inputs": [
        {
          "internalType": "address",
          "name": "_owner",
          "type": "address"
        }
      ],
      "name": "getAuctionsCountOfOwner",
      "outputs": [
        {
          "internalType": "uint256",
          "name": "",
          "type": "uint256"
        }
      ],
      "stateMutability": "view",
      "type": "function",
      "constant": true
    },
    {
      "inputs": [
        {
          "internalType": "uint256",
          "name": "_auctionId",
          "type": "uint256"
        }
      ],
      "name": "getAuctionById",
      "outputs": [
        {
          "internalType": "string",
          "name": "name",
          "type": "string"
        },
        {
          "internalType": "uint256",
          "name": "blockDeadline",
          "type": "uint256"
        },
        {
          "internalType": "uint256",
          "name": "startPrice",
          "type": "uint256"
        },
        {
          "internalType": "string",
          "name": "metadata",
          "type": "string"
        },
        {
          "internalType": "uint256",
          "name": "deedId",
          "type": "uint256"
        },
        {
          "internalType": "address",
          "name": "deedRepositoryAddress",
          "type": "address"
        },
        {
          "internalType": "address",
          "name": "owner",
          "type": "address"
        },
        {
          "internalType": "bool",
          "name": "active",
          "type": "bool"
        },
        {
          "internalType": "bool",
          "name": "finalized",
          "type": "bool"
        }
      ],
      "stateMutability": "view",
      "type": "function",
      "constant": true
    },
    {
      "inputs": [
        {
          "internalType": "address",
          "name": "_deedRepositoryAddress",
          "type": "address"
        },
        {
          "internalType": "uint256",
          "name": "_deedId",
          "type": "uint256"
        },
        {
          "internalType": "string",
          "name": "_auctionTitle",
          "type": "string"
        },
        {
          "internalType": "string",
          "name": "_metadata",
          "type": "string"
        },
        {
          "internalType": "uint256",
          "name": "_startPrice",
          "type": "uint256"
        },
        {
          "internalType": "uint256",
          "name": "_blockDeadline",
          "type": "uint256"
        }
      ],
      "name": "createAuction",
      "outputs": [
        {
          "internalType": "bool",
          "name": "",
          "type": "bool"
        }
      ],
      "stateMutability": "nonpayable",
      "type": "function"
    },
    {
      "inputs": [
        {
          "internalType": "uint256",
          "name": "_auctionId",
          "type": "uint256"
        }
      ],
      "name": "cancelAuction",
      "outputs": [],
      "stateMutability": "nonpayable",
      "type": "function"
    },
    {
      "inputs": [
        {
          "internalType": "uint256",
          "name": "_auctionId",
          "type": "uint256"
        }
      ],
      "name": "finalizeAuction",
      "outputs": [],
      "stateMutability": "nonpayable",
      "type": "function"
    },
    {
      "inputs": [
        {
          "internalType": "uint256",
          "name": "_auctionId",
          "type": "uint256"
        }
      ],
      "name": "bidOnAuction",
      "outputs": [],
      "stateMutability": "payable",
      "type": "function",
      "payable": true
    }
  ],
  "bytecode": "0x608060405234801561001057600080fd5b50612751806100206000396000f3fe6080604052600436106100c25760003560e01c8063a87d942c1161007f578063d56aa55811610059578063d56aa558146102b6578063da4e364f146102f3578063e1b9658114610331578063e80838631461036e576100c2565b8063a87d942c14610211578063b1b61bfa1461023c578063c8756cda14610279576100c2565b806318111ada146100c757806326b7aeea1461010c5780634008f9c014610128578063571a26a0146101655780635f93de49146101aa57806396b5a755146101e8575b600080fd5b3480156100d357600080fd5b506100ee60048036038101906100e99190611ec3565b610397565b60405161010399989796959493929190611ff4565b60405180910390f35b61012660048036038101906101219190611ec3565b610649565b005b34801561013457600080fd5b5061014f600480360381019061014a9190611ec3565b610b53565b60405161015c919061208f565b60405180910390f35b34801561017157600080fd5b5061018c60048036038101906101879190611ec3565b610b73565b6040516101a1999897969594939291906120cb565b60405180910390f35b3480156101b657600080fd5b506101d160048036038101906101cc9190612166565b610d3b565b6040516101df9291906121a6565b60405180910390f35b3480156101f457600080fd5b5061020f600480360381019061020a9190611ec3565b610d9c565b005b34801561021d57600080fd5b50610226611223565b604051610233919061208f565b60405180910390f35b34801561024857600080fd5b50610263600480360381019061025e91906121fb565b61122f565b60405161027091906122e6565b60405180910390f35b34801561028557600080fd5b506102a0600480360381019061029b9190612308565b6112cc565b6040516102ad919061208f565b60405180910390f35b3480156102c257600080fd5b506102dd60048036038101906102d891906121fb565b6112fd565b6040516102ea919061208f565b60405180910390f35b3480156102ff57600080fd5b5061031a60048036038101906103159190611ec3565b611349565b604051610328929190612348565b60405180910390f35b34801561033d57600080fd5b50610358600480360381019061035391906124a6565b611441565b604051610365919061256b565b60405180910390f35b34801561037a57600080fd5b5061039560048036038101906103909190611ec3565b6117d6565b005b6060600080606060008060008060008060008b815481106103bb576103ba612586565b5b9060005260206000209060070201604051806101200160405290816000820180546103e5906125e4565b80601f0160208091040260200160405190810160405280929190818152602001828054610411906125e4565b801561045e5780601f106104335761010080835404028352916020019161045e565b820191906000526020600020905b81548152906001019060200180831161044157829003601f168201915b50505050508152602001600182015481526020016002820154815260200160038201805461048b906125e4565b80601f01602080910402602001604051908101604052809291908181526020018280546104b7906125e4565b80156105045780601f106104d957610100808354040283529160200191610504565b820191906000526020600020905b8154815290600101906020018083116104e757829003601f168201915b50505050508152602001600482015481526020016005820160009054906101000a900473ffffffffffffffffffffffffffffffffffffffff1673ffffffffffffffffffffffffffffffffffffffff1673ffffffffffffffffffffffffffffffffffffffff1681526020016006820160009054906101000a900473ffffffffffffffffffffffffffffffffffffffff1673ffffffffffffffffffffffffffffffffffffffff1673ffffffffffffffffffffffffffffffffffffffff1681526020016006820160149054906101000a900460ff161515151581526020016006820160159054906101000a900460ff1615151515815250509050806000015181602001518260400151836060015184608001518560a001518660c001518760e00151886101000151995099509950995099509950995099509950509193959799909294969850565b6000349050600080838154811061066357610662612586565b5b90600052602060002090600702016040518061012001604052908160008201805461068d906125e4565b80601f01602080910402602001604051908101604052809291908181526020018280546106b9906125e4565b80156107065780601f106106db57610100808354040283529160200191610706565b820191906000526020600020905b8154815290600101906020018083116106e957829003601f168201915b505050505081526020016001820154815260200160028201548152602001600382018054610733906125e4565b80601f016020809104026020016040519081016040528092919081815260200182805461075f906125e4565b80156107ac5780601f10610781576101008083540402835291602001916107ac565b820191906000526020600020905b81548152906001019060200180831161078f57829003601f168201915b50505050508152602001600482015481526020016005820160009054906101000a900473ffffffffffffffffffffffffffffffffffffffff1673ffffffffffffffffffffffffffffffffffffffff1673ffffffffffffffffffffffffffffffffffffffff1681526020016006820160009054906101000a900473ffffffffffffffffffffffffffffffffffffffff1673ffffffffffffffffffffffffffffffffffffffff1673ffffffffffffffffffffffffffffffffffffffff1681526020016006820160149054906101000a900460ff161515151581526020016006820160159054906101000a900460ff16151515158152505090503373ffffffffffffffffffffffffffffffffffffffff168160c0015173ffffffffffffffffffffffffffffffffffffffff1614156108e057600080fd5b80602001514211156108f157600080fd5b60006001600085815260200190815260200160002080549050905060008260400151905061091d611d2a565b60008311156109da57600160008781526020019081526020016000206001846109469190612645565b8154811061095757610956612586565b5b90600052602060002090600202016040518060400160405290816000820160009054906101000a900473ffffffffffffffffffffffffffffffffffffffff1673ffffffffffffffffffffffffffffffffffffffff1673ffffffffffffffffffffffffffffffffffffffff1681526020016001820154815250509050806020015191505b818510156109e757600080fd5b6000831115610a3757806000015173ffffffffffffffffffffffffffffffffffffffff166108fc82602001519081150290604051600060405180830381858888f19350505050610a3657600080fd5b5b610a3f611d2a565b33816000019073ffffffffffffffffffffffffffffffffffffffff16908173ffffffffffffffffffffffffffffffffffffffff1681525050858160200181815250506001600088815260200190815260200160002081908060018154018082558091505060019003906000526020600020906002020160009091909190915060008201518160000160006101000a81548173ffffffffffffffffffffffffffffffffffffffff021916908373ffffffffffffffffffffffffffffffffffffffff1602179055506020820151816001015550507f5762e6a7d331cd17a1761e94de3ea3b85e90ee6cdd9d1204e361cc650689d4633388604051610b42929190612679565b60405180910390a150505050505050565b600060016000838152602001908152602001600020805490509050919050565b60008181548110610b8357600080fd5b9060005260206000209060070201600091509050806000018054610ba6906125e4565b80601f0160208091040260200160405190810160405280929190818152602001828054610bd2906125e4565b8015610c1f5780601f10610bf457610100808354040283529160200191610c1f565b820191906000526020600020905b815481529060010190602001808311610c0257829003601f168201915b505050505090806001015490806002015490806003018054610c40906125e4565b80601f0160208091040260200160405190810160405280929190818152602001828054610c6c906125e4565b8015610cb95780601f10610c8e57610100808354040283529160200191610cb9565b820191906000526020600020905b815481529060010190602001808311610c9c57829003601f168201915b5050505050908060040154908060050160009054906101000a900473ffffffffffffffffffffffffffffffffffffffff16908060060160009054906101000a900473ffffffffffffffffffffffffffffffffffffffff16908060060160149054906101000a900460ff16908060060160159054906101000a900460ff16905089565b60016020528160005260406000208181548110610d5757600080fd5b9060005260206000209060020201600091509150508060000160009054906101000a900473ffffffffffffffffffffffffffffffffffffffff16908060010154905082565b803373ffffffffffffffffffffffffffffffffffffffff1660008281548110610dc857610dc7612586565b5b906000526020600020906007020160060160009054906101000a900473ffffffffffffffffffffffffffffffffffffffff1673ffffffffffffffffffffffffffffffffffffffff1614610e1a57600080fd5b6000808381548110610e2f57610e2e612586565b5b906000526020600020906007020160405180610120016040529081600082018054610e59906125e4565b80601f0160208091040260200160405190810160405280929190818152602001828054610e85906125e4565b8015610ed25780601f10610ea757610100808354040283529160200191610ed2565b820191906000526020600020905b815481529060010190602001808311610eb557829003601f168201915b505050505081526020016001820154815260200160028201548152602001600382018054610eff906125e4565b80601f0160208091040260200160405190810160405280929190818152602001828054610f2b906125e4565b8015610f785780601f10610f4d57610100808354040283529160200191610f78565b820191906000526020600020905b815481529060010190602001808311610f5b57829003601f168201915b50505050508152602001600482015481526020016005820160009054906101000a900473ffffffffffffffffffffffffffffffffffffffff1673ffffffffffffffffffffffffffffffffffffffff1673ffffffffffffffffffffffffffffffffffffffff1681526020016006820160009054906101000a900473ffffffffffffffffffffffffffffffffffffffff1673ffffffffffffffffffffffffffffffffffffffff1673ffffffffffffffffffffffffffffffffffffffff1681526020016006820160149054906101000a900460ff161515151581526020016006820160159054906101000a900460ff16151515158152505090506000600160008581526020019081526020016000208054905090506000811115611189576000600160008681526020019081526020016000206001836110b59190612645565b815481106110c6576110c5612586565b5b90600052602060002090600202016040518060400160405290816000820160009054906101000a900473ffffffffffffffffffffffffffffffffffffffff1673ffffffffffffffffffffffffffffffffffffffff1673ffffffffffffffffffffffffffffffffffffffff1681526020016001820154815250509050806000015173ffffffffffffffffffffffffffffffffffffffff166108fc82602001519081150290604051600060405180830381858888f1935050505061118757600080fd5b505b6111a1308360c001518460a001518560800151611c3b565b1561121d5760008085815481106111bb576111ba612586565b5b906000526020600020906007020160060160146101000a81548160ff0219169083151502179055507f39e6c898ce035bbacd9ba4f9753534f8c9f976e0ff70be83cfe887f235afa1d33385604051611214929190612679565b60405180910390a15b50505050565b60008080549050905090565b60606000600260008473ffffffffffffffffffffffffffffffffffffffff1673ffffffffffffffffffffffffffffffffffffffff1681526020019081526020016000208054806020026020016040519081016040528092919081815260200182805480156112bc57602002820191906000526020600020905b8154815260200190600101908083116112a8575b5050505050905080915050919050565b600260205281600052604060002081815481106112e857600080fd5b90600052602060002001600091509150505481565b6000600260008373ffffffffffffffffffffffffffffffffffffffff1673ffffffffffffffffffffffffffffffffffffffff168152602001908152602001600020805490509050919050565b6000806000600160008581526020019081526020016000208054905090506000811115611433576000600160008681526020019081526020016000206001836113929190612645565b815481106113a3576113a2612586565b5b90600052602060002090600202016040518060400160405290816000820160009054906101000a900473ffffffffffffffffffffffffffffffffffffffff1673ffffffffffffffffffffffffffffffffffffffff1673ffffffffffffffffffffffffffffffffffffffff16815260200160018201548152505090508060200151816000015193509350505061143c565b60008092509250505b915091565b6000868660008273ffffffffffffffffffffffffffffffffffffffff16636352211e836040518263ffffffff1660e01b8152600401611480919061208f565b602060405180830381865afa15801561149d573d6000803e3d6000fd5b505050506040513d601f19601f820116820180604052508101906114c191906126b7565b90503073ffffffffffffffffffffffffffffffffffffffff168173ffffffffffffffffffffffffffffffffffffffff16146114fb57600080fd5b60008080549050905061150c611d5a565b89816000018190525086816020018181525050878160400181815250508881606001819052508a8160800181815250508b8160a0019073ffffffffffffffffffffffffffffffffffffffff16908173ffffffffffffffffffffffffffffffffffffffff1681525050338160c0019073ffffffffffffffffffffffffffffffffffffffff16908173ffffffffffffffffffffffffffffffffffffffff168152505060018160e001901515908115158152505060008161010001901515908115158152505060008190806001815401808255809150506001900390600052602060002090600702016000909190919091506000820151816000019080519060200190611617929190611dd6565b5060208201518160010155604082015181600201556060820151816003019080519060200190611648929190611dd6565b506080820151816004015560a08201518160050160006101000a81548173ffffffffffffffffffffffffffffffffffffffff021916908373ffffffffffffffffffffffffffffffffffffffff16021790555060c08201518160060160006101000a81548173ffffffffffffffffffffffffffffffffffffffff021916908373ffffffffffffffffffffffffffffffffffffffff16021790555060e08201518160060160146101000a81548160ff0219169083151502179055506101008201518160060160156101000a81548160ff0219169083151502179055505050600260003373ffffffffffffffffffffffffffffffffffffffff1673ffffffffffffffffffffffffffffffffffffffff1681526020019081526020016000208290806001815401808255809150506001900390600052602060002001600090919091909150557f3249a06bd478adf780bb7930214ad005e9cfa517d63221c0b77f27199d1a58b333836040516117bb929190612679565b60405180910390a16001955050505050509695505050505050565b60008082815481106117eb576117ea612586565b5b906000526020600020906007020160405180610120016040529081600082018054611815906125e4565b80601f0160208091040260200160405190810160405280929190818152602001828054611841906125e4565b801561188e5780601f106118635761010080835404028352916020019161188e565b820191906000526020600020905b81548152906001019060200180831161187157829003601f168201915b5050505050815260200160018201548152602001600282015481526020016003820180546118bb906125e4565b80601f01602080910402602001604051908101604052809291908181526020018280546118e7906125e4565b80156119345780601f1061190957610100808354040283529160200191611934565b820191906000526020600020905b81548152906001019060200180831161191757829003601f168201915b50505050508152602001600482015481526020016005820160009054906101000a900473ffffffffffffffffffffffffffffffffffffffff1673ffffffffffffffffffffffffffffffffffffffff1673ffffffffffffffffffffffffffffffffffffffff1681526020016006820160009054906101000a900473ffffffffffffffffffffffffffffffffffffffff1673ffffffffffffffffffffffffffffffffffffffff1673ffffffffffffffffffffffffffffffffffffffff1681526020016006820160149054906101000a900460ff161515151581526020016006820160159054906101000a900460ff16151515158152505090506000600160008481526020019081526020016000208054905090508160200151421015611a5757600080fd5b6000811415611a6e57611a6983610d9c565b611c36565b600060016000858152602001908152602001600020600183611a909190612645565b81548110611aa157611aa0612586565b5b90600052602060002090600202016040518060400160405290816000820160009054906101000a900473ffffffffffffffffffffffffffffffffffffffff1673ffffffffffffffffffffffffffffffffffffffff1673ffffffffffffffffffffffffffffffffffffffff16815260200160018201548152505090508260c0015173ffffffffffffffffffffffffffffffffffffffff166108fc82602001519081150290604051600060405180830381858888f19350505050611b6257600080fd5b611b7a3082600001518560a001518660800151611c3b565b15611c34576000808581548110611b9457611b93612586565b5b906000526020600020906007020160060160146101000a81548160ff021916908315150217905550600160008581548110611bd257611bd1612586565b5b906000526020600020906007020160060160156101000a81548160ff0219169083151502179055507f357afab190ee87fe0ef1c717f2728d2904d9e415a069d99f4d9382873cb3279d3385604051611c2b929190612679565b60405180910390a15b505b505050565b6000808390508073ffffffffffffffffffffffffffffffffffffffff1663095ea7b386856040518363ffffffff1660e01b8152600401611c7c929190612679565b600060405180830381600087803b158015611c9657600080fd5b505af1158015611caa573d6000803e3d6000fd5b505050508073ffffffffffffffffffffffffffffffffffffffff166323b872dd8787866040518463ffffffff1660e01b8152600401611ceb939291906126e4565b600060405180830381600087803b158015611d0557600080fd5b505af1158015611d19573d6000803e3d6000fd5b505050506001915050949350505050565b6040518060400160405280600073ffffffffffffffffffffffffffffffffffffffff168152602001600081525090565b6040518061012001604052806060815260200160008152602001600081526020016060815260200160008152602001600073ffffffffffffffffffffffffffffffffffffffff168152602001600073ffffffffffffffffffffffffffffffffffffffff1681526020016000151581526020016000151581525090565b828054611de2906125e4565b90600052602060002090601f016020900481019282611e045760008555611e4b565b82601f10611e1d57805160ff1916838001178555611e4b565b82800160010185558215611e4b579182015b82811115611e4a578251825591602001919060010190611e2f565b5b509050611e589190611e5c565b5090565b5b80821115611e75576000816000905550600101611e5d565b5090565b6000604051905090565b600080fd5b600080fd5b6000819050919050565b611ea081611e8d565b8114611eab57600080fd5b50565b600081359050611ebd81611e97565b92915050565b600060208284031215611ed957611ed8611e83565b5b6000611ee784828501611eae565b91505092915050565b600081519050919050565b600082825260208201905092915050565b60005b83811015611f2a578082015181840152602081019050611f0f565b83811115611f39576000848401525b50505050565b6000601f19601f8301169050919050565b6000611f5b82611ef0565b611f658185611efb565b9350611f75818560208601611f0c565b611f7e81611f3f565b840191505092915050565b611f9281611e8d565b82525050565b600073ffffffffffffffffffffffffffffffffffffffff82169050919050565b6000611fc382611f98565b9050919050565b611fd381611fb8565b82525050565b60008115159050919050565b611fee81611fd9565b82525050565b600061012082019050818103600083015261200f818c611f50565b905061201e602083018b611f89565b61202b604083018a611f89565b818103606083015261203d8189611f50565b905061204c6080830188611f89565b61205960a0830187611fca565b61206660c0830186611fca565b61207360e0830185611fe5565b612081610100830184611fe5565b9a9950505050505050505050565b60006020820190506120a46000830184611f89565b92915050565b60006120b582611f98565b9050919050565b6120c5816120aa565b82525050565b60006101208201905081810360008301526120e6818c611f50565b90506120f5602083018b611f89565b612102604083018a611f89565b81810360608301526121148189611f50565b90506121236080830188611f89565b61213060a0830187611fca565b61213d60c08301866120bc565b61214a60e0830185611fe5565b612158610100830184611fe5565b9a9950505050505050505050565b6000806040838503121561217d5761217c611e83565b5b600061218b85828601611eae565b925050602061219c85828601611eae565b9150509250929050565b60006040820190506121bb60008301856120bc565b6121c86020830184611f89565b9392505050565b6121d881611fb8565b81146121e357600080fd5b50565b6000813590506121f5816121cf565b92915050565b60006020828403121561221157612210611e83565b5b600061221f848285016121e6565b91505092915050565b600081519050919050565b600082825260208201905092915050565b6000819050602082019050919050565b61225d81611e8d565b82525050565b600061226f8383612254565b60208301905092915050565b6000602082019050919050565b600061229382612228565b61229d8185612233565b93506122a883612244565b8060005b838110156122d95781516122c08882612263565b97506122cb8361227b565b9250506001810190506122ac565b5085935050505092915050565b600060208201905081810360008301526123008184612288565b905092915050565b6000806040838503121561231f5761231e611e83565b5b600061232d858286016121e6565b925050602061233e85828601611eae565b9150509250929050565b600060408201905061235d6000830185611f89565b61236a6020830184611fca565b9392505050565b600080fd5b600080fd5b7f4e487b7100000000000000000000000000000000000000000000000000000000600052604160045260246000fd5b6123b382611f3f565b810181811067ffffffffffffffff821117156123d2576123d161237b565b5b80604052505050565b60006123e5611e79565b90506123f182826123aa565b919050565b600067ffffffffffffffff8211156124115761241061237b565b5b61241a82611f3f565b9050602081019050919050565b82818337600083830152505050565b6000612449612444846123f6565b6123db565b90508281526020810184848401111561246557612464612376565b5b612470848285612427565b509392505050565b600082601f83011261248d5761248c612371565b5b813561249d848260208601612436565b91505092915050565b60008060008060008060c087890312156124c3576124c2611e83565b5b60006124d189828a016121e6565b96505060206124e289828a01611eae565b955050604087013567ffffffffffffffff81111561250357612502611e88565b5b61250f89828a01612478565b945050606087013567ffffffffffffffff8111156125305761252f611e88565b5b61253c89828a01612478565b935050608061254d89828a01611eae565b92505060a061255e89828a01611eae565b9150509295509295509295565b60006020820190506125806000830184611fe5565b92915050565b7f4e487b7100000000000000000000000000000000000000000000000000000000600052603260045260246000fd5b7f4e487b7100000000000000000000000000000000000000000000000000000000600052602260045260246000fd5b600060028204905060018216806125fc57607f821691505b602082108114156126105761260f6125b5565b5b50919050565b7f4e487b7100000000000000000000000000000000000000000000000000000000600052601160045260246000fd5b600061265082611e8d565b915061265b83611e8d565b92508282101561266e5761266d612616565b5b828203905092915050565b600060408201905061268e6000830185611fca565b61269b6020830184611f89565b9392505050565b6000815190506126b1816121cf565b92915050565b6000602082840312156126cd576126cc611e83565b5b60006126db848285016126a2565b91505092915050565b60006060820190506126f96000830186611fca565b6127066020830185611fca565b6127136040830184611f89565b94935050505056fea264697066735822122039285cfc8fe4be6c4039b983676bd3dc50c7143d613cb7ffab647e3e7fed741f64736f6c634300080b0033",
  "immutableReferences": {},
  "source": "// SPDX-License-Identifier: MIT\npragma solidity >=0.4.22 <0.9.0;\n\nimport \"./DeedRepository.sol\";\n\ncontract AuctionRepository {\n  // Array with all auctions\n    Auction[] public auctions;\n\n    // Mapping from auction index to user bids\n    mapping(uint256 => Bid[]) public auctionBids;\n\n    // Mapping from owner to a list of owned auctions\n    mapping(address => uint[]) public auctionOwner;\n\n    // Bid struct to hold bidder and amount\n    struct Bid {\n        address payable from;\n        uint256 amount;\n    }\n\n    // Auction struct which holds all the required info\n    struct Auction {\n        string name;\n        uint256 blockDeadline;\n        uint256 startPrice;\n        string metadata;\n        uint256 deedId;\n        address deedRepositoryAddress;\n        address payable owner;\n        bool active;\n        bool finalized;\n    }\n\n    /**\n    * @dev Guarantees msg.sender is owner of the given auction\n    * @param _auctionId uint ID of the auction to validate its ownership belongs to msg.sender\n    */\n    modifier isOwner(uint _auctionId) {\n        require(auctions[_auctionId].owner == msg.sender);\n        _;\n    }\n\n    /**\n    * @dev Guarantees this contract is owner of the given deed/token\n    * @param _deedRepositoryAddress address of the deed repository to validate from\n    * @param _deedId uint256 ID of the deed which has been registered in the deed repository\n    */\n    modifier contractIsDeedOwner(address _deedRepositoryAddress, uint256 _deedId) {\n        address deedOwner = DeedRepository(_deedRepositoryAddress).ownerOf(_deedId);\n        require(deedOwner == address(this));\n        _;\n    }\n\n    /**\n    * @dev Disallow payments to this contract directly\n    */\n    // function() external {\n    //     revert();\n    // }\n\n    /**\n    * @dev Gets the length of auctions\n    * @return uint representing the auction count\n    */\n    function getCount() public view returns(uint) {\n        return auctions.length;\n    }\n\n    /**\n    * @dev Gets the bid counts of a given auction\n    * @param _auctionId uint ID of the auction\n    */\n    function getBidsCount(uint _auctionId) public view returns(uint) {\n        return auctionBids[_auctionId].length;\n    }\n\n    /**\n    * @dev Gets an array of owned auctions\n    * @param _owner address of the auction owner\n    */\n    function getAuctionsOf(address _owner) public view returns(uint[] memory) {\n        uint[] memory ownedAuctions = auctionOwner[_owner];\n        return ownedAuctions;\n    }\n\n    /**\n    * @dev Gets an array of owned auctions\n    * @param _auctionId uint of the auction owner\n    * @return amount uint256, address of last bidder\n    */\n    function getCurrentBid(uint _auctionId) public view returns(uint256, address) {\n        uint bidsLength = auctionBids[_auctionId].length;\n        // if there are bids refund the last bid\n        if( bidsLength > 0 ) {\n            Bid memory lastBid = auctionBids[_auctionId][bidsLength - 1];\n            return (lastBid.amount, lastBid.from);\n        }\n        return (uint256(0), address(0));\n    }\n\n    /**\n    * @dev Gets the total number of auctions owned by an address\n    * @param _owner address of the owner\n    * @return uint total number of auctions\n    */\n    function getAuctionsCountOfOwner(address _owner) public view returns(uint) {\n        return auctionOwner[_owner].length;\n    }\n\n    /*\n    * @dev Gets the info of a given auction which are stored within a struct\n    * @param _auctionId uint ID of the auction\n    * @return string name of the auction\n    * @return uint256 timestamp of the auction in which it expires\n    * @return uint256 starting price of the auction\n    * @return string representing the metadata of the auction\n    * @return uint256 ID of the deed registered in DeedRepository\n    * @return address Address of the DeedRepository\n    * @return address owner of the auction\n    * @return bool whether the auction is active\n    * @return bool whether the auction is finalized\n    */\n    function getAuctionById(uint _auctionId) public view returns(\n        string memory name,\n        uint256 blockDeadline,\n        uint256 startPrice,\n        string memory metadata,\n        uint256 deedId,\n        address deedRepositoryAddress,\n        address owner,\n        bool active,\n        bool finalized) {\n\n        Auction memory auc = auctions[_auctionId];\n        return (\n            auc.name, \n            auc.blockDeadline, \n            auc.startPrice, \n            auc.metadata, \n            auc.deedId, \n            auc.deedRepositoryAddress, \n            auc.owner, \n            auc.active, \n            auc.finalized);\n    }\n    \n    /**\n    * @dev Creates an auction with the given informatin\n    * @param _deedRepositoryAddress address of the DeedRepository contract\n    * @param _deedId uint256 of the deed registered in DeedRepository\n    * @param _auctionTitle string containing auction title\n    * @param _metadata string containing auction metadata \n    * @param _startPrice uint256 starting price of the auction\n    * @param _blockDeadline uint is the timestamp in which the auction expires\n    * @return bool whether the auction is created\n    */\n    function createAuction(address _deedRepositoryAddress, uint256 _deedId, string memory _auctionTitle, string memory _metadata, uint256 _startPrice, uint _blockDeadline) public contractIsDeedOwner(_deedRepositoryAddress, _deedId) returns(bool) {\n        uint auctionId = auctions.length;\n        Auction memory newAuction;\n        newAuction.name = _auctionTitle;\n        newAuction.blockDeadline = _blockDeadline;\n        newAuction.startPrice = _startPrice;\n        newAuction.metadata = _metadata;\n        newAuction.deedId = _deedId;\n        newAuction.deedRepositoryAddress = _deedRepositoryAddress;\n        newAuction.owner = payable(msg.sender);\n        newAuction.active = true;\n        newAuction.finalized = false;\n        \n        auctions.push(newAuction);        \n        auctionOwner[msg.sender].push(auctionId);\n        \n        emit AuctionCreated(msg.sender, auctionId);\n        return true;\n    }\n\n    function approveAndTransfer(address _from, address _to, address _deedRepositoryAddress, uint256 _deedId) internal returns(bool) {\n        DeedRepository remoteContract = DeedRepository(_deedRepositoryAddress);\n        remoteContract.approve(_to, _deedId);\n        remoteContract.transferFrom(_from, _to, _deedId);\n        return true;\n    }\n\n    /**\n    * @dev Cancels an ongoing auction by the owner\n    * @dev Deed is transfered back to the auction owner\n    * @dev Bidder is refunded with the initial amount\n    * @param _auctionId uint ID of the created auction\n    */\n    function cancelAuction(uint _auctionId) public isOwner(_auctionId) {\n        Auction memory myAuction = auctions[_auctionId];\n        uint bidsLength = auctionBids[_auctionId].length;\n\n        // if there are bids refund the last bid\n        if( bidsLength > 0 ) {\n            Bid memory lastBid = auctionBids[_auctionId][bidsLength - 1];\n            if(!lastBid.from.send(lastBid.amount)) {\n                revert();\n            }\n        }\n\n        // approve and transfer from this contract to auction owner\n        if(approveAndTransfer(address(this), myAuction.owner, myAuction.deedRepositoryAddress, myAuction.deedId)){\n            auctions[_auctionId].active = false;\n            emit AuctionCanceled(msg.sender, _auctionId);\n        }\n    }\n\n    /**\n    * @dev Finalized an ended auction\n    * @dev The auction should be ended, and there should be at least one bid\n    * @dev On success Deed is transfered to bidder and auction owner gets the amount\n    * @param _auctionId uint ID of the created auction\n    */\n    function finalizeAuction(uint _auctionId) public {\n        Auction memory myAuction = auctions[_auctionId];\n        uint bidsLength = auctionBids[_auctionId].length;\n\n        // 1. if auction not ended just revert\n        if( block.timestamp < myAuction.blockDeadline ) revert();\n        \n        // if there are no bids cancel\n        if(bidsLength == 0) {\n            cancelAuction(_auctionId);\n        }else{\n\n            // 2. the money goes to the auction owner\n            Bid memory lastBid = auctionBids[_auctionId][bidsLength - 1];\n            if(!myAuction.owner.send(lastBid.amount)) {\n                revert();\n            }\n\n            // approve and transfer from this contract to the bid winner \n            if(approveAndTransfer(address(this), lastBid.from, myAuction.deedRepositoryAddress, myAuction.deedId)){\n                auctions[_auctionId].active = false;\n                auctions[_auctionId].finalized = true;\n                emit AuctionFinalized(msg.sender, _auctionId);\n            }\n        }\n    }\n\n    /**\n    * @dev Bidder sends bid on an auction\n    * @dev Auction should be active and not ended\n    * @dev Refund previous bidder if a new bid is valid and placed.\n    * @param _auctionId uint ID of the created auction\n    */\n    function bidOnAuction(uint _auctionId) external payable {\n        uint256 ethAmountSent = msg.value;\n\n        // owner can't bid on their auctions\n        Auction memory myAuction = auctions[_auctionId];\n        if(myAuction.owner == msg.sender) revert();\n\n        // if auction is expired\n        if( block.timestamp > myAuction.blockDeadline ) revert();\n\n        uint bidsLength = auctionBids[_auctionId].length;\n        uint256 tempAmount = myAuction.startPrice;\n        Bid memory lastBid;\n\n        // there are previous bids\n        if( bidsLength > 0 ) {\n            lastBid = auctionBids[_auctionId][bidsLength - 1];\n            tempAmount = lastBid.amount;\n        }\n\n        // check if amound is greater than previous amount  \n        if( ethAmountSent < tempAmount ) revert(); \n\n        // refund the last bidder\n        if( bidsLength > 0 ) {\n            if(!lastBid.from.send(lastBid.amount)) {\n                revert();\n            }  \n        }\n\n        // insert bid \n        Bid memory newBid;\n        newBid.from = payable(msg.sender);\n        newBid.amount = ethAmountSent;\n        auctionBids[_auctionId].push(newBid);\n        emit BidSuccess(msg.sender, _auctionId);\n    }\n\n    event BidSuccess(address _from, uint _auctionId);\n\n    // AuctionCreated is fired when an auction is created\n    event AuctionCreated(address _owner, uint _auctionId);\n\n    // AuctionCanceled is fired when an auction is canceled\n    event AuctionCanceled(address _owner, uint _auctionId);\n\n    // AuctionFinalized is fired when an auction is finalized\n    event AuctionFinalized(address _owner, uint _auctionId);\n}\n",
  "sourcePath": "C:\\Users\\Brijesh Prajapati\\Documents\\ms_in_cs\\cpsc559\\auction_dapp\\backend\\contracts\\AuctionRepository.sol",
  "compiler": {
    "name": "solc",
    "version": "0.8.11+commit.d7f03943.Emscripten.clang"
  },
  "schemaVersion": "3.4.4",
  "updatedAt": "2022-04-29T23:06:39.235Z",
  "networkType": "ethereum",
  "devdoc": {
    "kind": "dev",
    "methods": {
      "bidOnAuction(uint256)": {
        "details": "Bidder sends bid on an auctionAuction should be active and not endedRefund previous bidder if a new bid is valid and placed.",
        "params": {
          "_auctionId": "uint ID of the created auction"
        }
      },
      "cancelAuction(uint256)": {
        "details": "Cancels an ongoing auction by the ownerDeed is transfered back to the auction ownerBidder is refunded with the initial amount",
        "params": {
          "_auctionId": "uint ID of the created auction"
        }
      },
      "createAuction(address,uint256,string,string,uint256,uint256)": {
        "details": "Creates an auction with the given informatin",
        "params": {
          "_auctionTitle": "string containing auction title",
          "_blockDeadline": "uint is the timestamp in which the auction expires",
          "_deedId": "uint256 of the deed registered in DeedRepository",
          "_deedRepositoryAddress": "address of the DeedRepository contract",
          "_metadata": "string containing auction metadata ",
          "_startPrice": "uint256 starting price of the auction"
        },
        "returns": {
          "_0": "bool whether the auction is created"
        }
      },
      "finalizeAuction(uint256)": {
        "details": "Finalized an ended auctionThe auction should be ended, and there should be at least one bidOn success Deed is transfered to bidder and auction owner gets the amount",
        "params": {
          "_auctionId": "uint ID of the created auction"
        }
      },
      "getAuctionsCountOfOwner(address)": {
        "details": "Gets the total number of auctions owned by an address",
        "params": {
          "_owner": "address of the owner"
        },
        "returns": {
          "_0": "uint total number of auctions"
        }
      },
      "getAuctionsOf(address)": {
        "details": "Gets an array of owned auctions",
        "params": {
          "_owner": "address of the auction owner"
        }
      },
      "getBidsCount(uint256)": {
        "details": "Gets the bid counts of a given auction",
        "params": {
          "_auctionId": "uint ID of the auction"
        }
      },
      "getCount()": {
        "details": "Gets the length of auctions",
        "returns": {
          "_0": "uint representing the auction count"
        }
      },
      "getCurrentBid(uint256)": {
        "details": "Gets an array of owned auctions",
        "params": {
          "_auctionId": "uint of the auction owner"
        },
        "returns": {
          "_0": "amount uint256, address of last bidder"
        }
      }
    },
    "version": 1
  },
  "userdoc": {
    "kind": "user",
    "methods": {},
    "version": 1
  }
}