{
  "contractName": "DeedRepository",
  "abi": [
    {
      "inputs": [
        {
          "internalType": "string",
          "name": "_name",
          "type": "string"
        },
        {
          "internalType": "string",
          "name": "_symbol",
          "type": "string"
        }
      ],
      "stateMutability": "nonpayable",
      "type": "constructor"
    },
    {
      "anonymous": false,
      "inputs": [
        {
          "indexed": true,
          "internalType": "address",
          "name": "owner",
          "type": "address"
        },
        {
          "indexed": true,
          "internalType": "address",
          "name": "approved",
          "type": "address"
        },
        {
          "indexed": true,
          "internalType": "uint256",
          "name": "tokenId",
          "type": "uint256"
        }
      ],
      "name": "Approval",
      "type": "event"
    },
    {
      "anonymous": false,
      "inputs": [
        {
          "indexed": true,
          "internalType": "address",
          "name": "owner",
          "type": "address"
        },
        {
          "indexed": true,
          "internalType": "address",
          "name": "operator",
          "type": "address"
        },
        {
          "indexed": false,
          "internalType": "bool",
          "name": "approved",
          "type": "bool"
        }
      ],
      "name": "ApprovalForAll",
      "type": "event"
    },
    {
      "anonymous": false,
      "inputs": [
        {
          "indexed": false,
          "internalType": "address",
          "name": "_by",
          "type": "address"
        },
        {
          "indexed": false,
          "internalType": "uint256",
          "name": "_tokenId",
          "type": "uint256"
        }
      ],
      "name": "DeedRegistered",
      "type": "event"
    },
    {
      "anonymous": false,
      "inputs": [
        {
          "indexed": true,
          "internalType": "address",
          "name": "from",
          "type": "address"
        },
        {
          "indexed": true,
          "internalType": "address",
          "name": "to",
          "type": "address"
        },
        {
          "indexed": true,
          "internalType": "uint256",
          "name": "tokenId",
          "type": "uint256"
        }
      ],
      "name": "Transfer",
      "type": "event"
    },
    {
      "inputs": [
        {
          "internalType": "address",
          "name": "to",
          "type": "address"
        },
        {
          "internalType": "uint256",
          "name": "tokenId",
          "type": "uint256"
        }
      ],
      "name": "approve",
      "outputs": [],
      "stateMutability": "nonpayable",
      "type": "function"
    },
    {
      "inputs": [
        {
          "internalType": "address",
          "name": "owner",
          "type": "address"
        }
      ],
      "name": "balanceOf",
      "outputs": [
        {
          "internalType": "uint256",
          "name": "",
          "type": "uint256"
        }
      ],
      "stateMutability": "view",
      "type": "function",
      "constant": true
    },
    {
      "inputs": [
        {
          "internalType": "uint256",
          "name": "tokenId",
          "type": "uint256"
        }
      ],
      "name": "getApproved",
      "outputs": [
        {
          "internalType": "address",
          "name": "",
          "type": "address"
        }
      ],
      "stateMutability": "view",
      "type": "function",
      "constant": true
    },
    {
      "inputs": [
        {
          "internalType": "address",
          "name": "owner",
          "type": "address"
        },
        {
          "internalType": "address",
          "name": "operator",
          "type": "address"
        }
      ],
      "name": "isApprovedForAll",
      "outputs": [
        {
          "internalType": "bool",
          "name": "",
          "type": "bool"
        }
      ],
      "stateMutability": "view",
      "type": "function",
      "constant": true
    },
    {
      "inputs": [],
      "name": "name",
      "outputs": [
        {
          "internalType": "string",
          "name": "",
          "type": "string"
        }
      ],
      "stateMutability": "view",
      "type": "function",
      "constant": true
    },
    {
      "inputs": [
        {
          "internalType": "uint256",
          "name": "tokenId",
          "type": "uint256"
        }
      ],
      "name": "ownerOf",
      "outputs": [
        {
          "internalType": "address",
          "name": "",
          "type": "address"
        }
      ],
      "stateMutability": "view",
      "type": "function",
      "constant": true
    },
    {
      "inputs": [
        {
          "internalType": "address",
          "name": "from",
          "type": "address"
        },
        {
          "internalType": "address",
          "name": "to",
          "type": "address"
        },
        {
          "internalType": "uint256",
          "name": "tokenId",
          "type": "uint256"
        }
      ],
      "name": "safeTransferFrom",
      "outputs": [],
      "stateMutability": "nonpayable",
      "type": "function"
    },
    {
      "inputs": [
        {
          "internalType": "address",
          "name": "from",
          "type": "address"
        },
        {
          "internalType": "address",
          "name": "to",
          "type": "address"
        },
        {
          "internalType": "uint256",
          "name": "tokenId",
          "type": "uint256"
        },
        {
          "internalType": "bytes",
          "name": "_data",
          "type": "bytes"
        }
      ],
      "name": "safeTransferFrom",
      "outputs": [],
      "stateMutability": "nonpayable",
      "type": "function"
    },
    {
      "inputs": [
        {
          "internalType": "address",
          "name": "operator",
          "type": "address"
        },
        {
          "internalType": "bool",
          "name": "approved",
          "type": "bool"
        }
      ],
      "name": "setApprovalForAll",
      "outputs": [],
      "stateMutability": "nonpayable",
      "type": "function"
    },
    {
      "inputs": [
        {
          "internalType": "bytes4",
          "name": "interfaceId",
          "type": "bytes4"
        }
      ],
      "name": "supportsInterface",
      "outputs": [
        {
          "internalType": "bool",
          "name": "",
          "type": "bool"
        }
      ],
      "stateMutability": "view",
      "type": "function",
      "constant": true
    },
    {
      "inputs": [],
      "name": "symbol",
      "outputs": [
        {
          "internalType": "string",
          "name": "",
          "type": "string"
        }
      ],
      "stateMutability": "view",
      "type": "function",
      "constant": true
    },
    {
      "inputs": [
        {
          "internalType": "uint256",
          "name": "tokenId",
          "type": "uint256"
        }
      ],
      "name": "tokenURI",
      "outputs": [
        {
          "internalType": "string",
          "name": "",
          "type": "string"
        }
      ],
      "stateMutability": "view",
      "type": "function",
      "constant": true
    },
    {
      "inputs": [
        {
          "internalType": "address",
          "name": "from",
          "type": "address"
        },
        {
          "internalType": "address",
          "name": "to",
          "type": "address"
        },
        {
          "internalType": "uint256",
          "name": "tokenId",
          "type": "uint256"
        }
      ],
      "name": "transferFrom",
      "outputs": [],
      "stateMutability": "nonpayable",
      "type": "function"
    },
    {
      "inputs": [
        {
          "internalType": "uint256",
          "name": "_tokenId",
          "type": "uint256"
        },
        {
          "internalType": "string",
          "name": "_uri",
          "type": "string"
        }
      ],
      "name": "registerDeed",
      "outputs": [],
      "stateMutability": "nonpayable",
      "type": "function"
    },
    {
      "inputs": [
        {
          "internalType": "uint256",
          "name": "_tokenId",
          "type": "uint256"
        },
        {
          "internalType": "string",
          "name": "_uri",
          "type": "string"
        }
      ],
      "name": "addDeedMetadata",
      "outputs": [
        {
          "internalType": "bool",
          "name": "",
          "type": "bool"
        }
      ],
      "stateMutability": "nonpayable",
      "type": "function"
    }
  ],
  "bytecode": "0x60806040523480156200001157600080fd5b5060405162002d0e38038062002d0e8339818101604052810190620000379190620002c2565b818181600090805190602001906200005192919062000075565b5080600190805190602001906200006a92919062000075565b5050505050620003ac565b828054620000839062000376565b90600052602060002090601f016020900481019282620000a75760008555620000f3565b82601f10620000c257805160ff1916838001178555620000f3565b82800160010185558215620000f3579182015b82811115620000f2578251825591602001919060010190620000d5565b5b50905062000102919062000106565b5090565b5b808211156200012157600081600090555060010162000107565b5090565b6000604051905090565b600080fd5b600080fd5b600080fd5b600080fd5b6000601f19601f8301169050919050565b7f4e487b7100000000000000000000000000000000000000000000000000000000600052604160045260246000fd5b6200018e8262000143565b810181811067ffffffffffffffff82111715620001b057620001af62000154565b5b80604052505050565b6000620001c562000125565b9050620001d3828262000183565b919050565b600067ffffffffffffffff821115620001f657620001f562000154565b5b620002018262000143565b9050602081019050919050565b60005b838110156200022e57808201518184015260208101905062000211565b838111156200023e576000848401525b50505050565b60006200025b6200025584620001d8565b620001b9565b9050828152602081018484840111156200027a57620002796200013e565b5b620002878482856200020e565b509392505050565b600082601f830112620002a757620002a662000139565b5b8151620002b984826020860162000244565b91505092915050565b60008060408385031215620002dc57620002db6200012f565b5b600083015167ffffffffffffffff811115620002fd57620002fc62000134565b5b6200030b858286016200028f565b925050602083015167ffffffffffffffff8111156200032f576200032e62000134565b5b6200033d858286016200028f565b9150509250929050565b7f4e487b7100000000000000000000000000000000000000000000000000000000600052602260045260246000fd5b600060028204905060018216806200038f57607f821691505b60208210811415620003a657620003a562000347565b5b50919050565b61295280620003bc6000396000f3fe608060405234801561001057600080fd5b50600436106100f55760003560e01c806370a0823111610097578063c87b56dd11610066578063c87b56dd14610282578063da556033146102b2578063e985e9c5146102e2578063f72439dd14610312576100f5565b806370a08231146101fc57806395d89b411461022c578063a22cb4651461024a578063b88d4fde14610266576100f5565b8063095ea7b3116100d3578063095ea7b31461017857806323b872dd1461019457806342842e0e146101b05780636352211e146101cc576100f5565b806301ffc9a7146100fa57806306fdde031461012a578063081812fc14610148575b600080fd5b610114600480360381019061010f91906117af565b61032e565b60405161012191906117f7565b60405180910390f35b610132610410565b60405161013f91906118ab565b60405180910390f35b610162600480360381019061015d9190611903565b6104a2565b60405161016f9190611971565b60405180910390f35b610192600480360381019061018d91906119b8565b610527565b005b6101ae60048036038101906101a991906119f8565b61063f565b005b6101ca60048036038101906101c591906119f8565b61069f565b005b6101e660048036038101906101e19190611903565b6106bf565b6040516101f39190611971565b60405180910390f35b61021660048036038101906102119190611a4b565b610771565b6040516102239190611a87565b60405180910390f35b610234610829565b60405161024191906118ab565b60405180910390f35b610264600480360381019061025f9190611ace565b6108bb565b005b610280600480360381019061027b9190611c43565b6108d1565b005b61029c60048036038101906102979190611903565b610933565b6040516102a991906118ab565b60405180910390f35b6102cc60048036038101906102c79190611d67565b6109da565b6040516102d991906117f7565b60405180910390f35b6102fc60048036038101906102f79190611dc3565b610a0e565b60405161030991906117f7565b60405180910390f35b61032c60048036038101906103279190611d67565b610aa2565b005b60007f80ac58cd000000000000000000000000000000000000000000000000000000007bffffffffffffffffffffffffffffffffffffffffffffffffffffffff1916827bffffffffffffffffffffffffffffffffffffffffffffffffffffffff191614806103f957507f5b5e139f000000000000000000000000000000000000000000000000000000007bffffffffffffffffffffffffffffffffffffffffffffffffffffffff1916827bffffffffffffffffffffffffffffffffffffffffffffffffffffffff1916145b80610409575061040882610af4565b5b9050919050565b60606000805461041f90611e32565b80601f016020809104026020016040519081016040528092919081815260200182805461044b90611e32565b80156104985780601f1061046d57610100808354040283529160200191610498565b820191906000526020600020905b81548152906001019060200180831161047b57829003601f168201915b5050505050905090565b60006104ad82610b5e565b6104ec576040517f08c379a00000000000000000000000000000000000000000000000000000000081526004016104e390611ed6565b60405180910390fd5b6004600083815260200190815260200160002060009054906101000a900473ffffffffffffffffffffffffffffffffffffffff169050919050565b6000610532826106bf565b90508073ffffffffffffffffffffffffffffffffffffffff168373ffffffffffffffffffffffffffffffffffffffff1614156105a3576040517f08c379a000000000000000000000000000000000000000000000000000000000815260040161059a90611f68565b60405180910390fd5b8073ffffffffffffffffffffffffffffffffffffffff166105c2610bca565b73ffffffffffffffffffffffffffffffffffffffff1614806105f157506105f0816105eb610bca565b610a0e565b5b610630576040517f08c379a000000000000000000000000000000000000000000000000000000000815260040161062790611ffa565b60405180910390fd5b61063a8383610bd2565b505050565b61065061064a610bca565b82610c8b565b61068f576040517f08c379a00000000000000000000000000000000000000000000000000000000081526004016106869061208c565b60405180910390fd5b61069a838383610d69565b505050565b6106ba838383604051806020016040528060008152506108d1565b505050565b6000806002600084815260200190815260200160002060009054906101000a900473ffffffffffffffffffffffffffffffffffffffff169050600073ffffffffffffffffffffffffffffffffffffffff168173ffffffffffffffffffffffffffffffffffffffff161415610768576040517f08c379a000000000000000000000000000000000000000000000000000000000815260040161075f9061211e565b60405180910390fd5b80915050919050565b60008073ffffffffffffffffffffffffffffffffffffffff168273ffffffffffffffffffffffffffffffffffffffff1614156107e2576040517f08c379a00000000000000000000000000000000000000000000000000000000081526004016107d9906121b0565b60405180910390fd5b600360008373ffffffffffffffffffffffffffffffffffffffff1673ffffffffffffffffffffffffffffffffffffffff168152602001908152602001600020549050919050565b60606001805461083890611e32565b80601f016020809104026020016040519081016040528092919081815260200182805461086490611e32565b80156108b15780601f10610886576101008083540402835291602001916108b1565b820191906000526020600020905b81548152906001019060200180831161089457829003601f168201915b5050505050905090565b6108cd6108c6610bca565b8383610fd0565b5050565b6108e26108dc610bca565b83610c8b565b610921576040517f08c379a00000000000000000000000000000000000000000000000000000000081526004016109189061208c565b60405180910390fd5b61092d8484848461113d565b50505050565b606061093e82610b5e565b61097d576040517f08c379a000000000000000000000000000000000000000000000000000000000815260040161097490612242565b60405180910390fd5b6000610987611199565b905060008151116109a757604051806020016040528060008152506109d2565b806109b1846111b0565b6040516020016109c292919061229e565b6040516020818303038152906040525b915050919050565b600081600660008581526020019081526020016000209080519060200190610a039291906116a0565b506001905092915050565b6000600560008473ffffffffffffffffffffffffffffffffffffffff1673ffffffffffffffffffffffffffffffffffffffff16815260200190815260200160002060008373ffffffffffffffffffffffffffffffffffffffff1673ffffffffffffffffffffffffffffffffffffffff16815260200190815260200160002060009054906101000a900460ff16905092915050565b610aac3383611311565b610ab682826109da565b507f32cc5b866d6a5990a7f987020b639157969cb963b9beb2cdf41df22ab152df353383604051610ae89291906122c2565b60405180910390a15050565b60007f01ffc9a7000000000000000000000000000000000000000000000000000000007bffffffffffffffffffffffffffffffffffffffffffffffffffffffff1916827bffffffffffffffffffffffffffffffffffffffffffffffffffffffff1916149050919050565b60008073ffffffffffffffffffffffffffffffffffffffff166002600084815260200190815260200160002060009054906101000a900473ffffffffffffffffffffffffffffffffffffffff1673ffffffffffffffffffffffffffffffffffffffff1614159050919050565b600033905090565b816004600083815260200190815260200160002060006101000a81548173ffffffffffffffffffffffffffffffffffffffff021916908373ffffffffffffffffffffffffffffffffffffffff160217905550808273ffffffffffffffffffffffffffffffffffffffff16610c45836106bf565b73ffffffffffffffffffffffffffffffffffffffff167f8c5be1e5ebec7d5bd14f71427d1e84f3dd0314c0f7b2291e5b200ac8c7c3b92560405160405180910390a45050565b6000610c9682610b5e565b610cd5576040517f08c379a0000000000000000000000000000000000000000000000000000000008152600401610ccc9061235d565b60405180910390fd5b6000610ce0836106bf565b90508073ffffffffffffffffffffffffffffffffffffffff168473ffffffffffffffffffffffffffffffffffffffff161480610d225750610d218185610a0e565b5b80610d6057508373ffffffffffffffffffffffffffffffffffffffff16610d48846104a2565b73ffffffffffffffffffffffffffffffffffffffff16145b91505092915050565b8273ffffffffffffffffffffffffffffffffffffffff16610d89826106bf565b73ffffffffffffffffffffffffffffffffffffffff1614610ddf576040517f08c379a0000000000000000000000000000000000000000000000000000000008152600401610dd6906123ef565b60405180910390fd5b600073ffffffffffffffffffffffffffffffffffffffff168273ffffffffffffffffffffffffffffffffffffffff161415610e4f576040517f08c379a0000000000000000000000000000000000000000000000000000000008152600401610e4690612481565b60405180910390fd5b610e5a8383836114eb565b610e65600082610bd2565b6001600360008573ffffffffffffffffffffffffffffffffffffffff1673ffffffffffffffffffffffffffffffffffffffff1681526020019081526020016000206000828254610eb591906124d0565b925050819055506001600360008473ffffffffffffffffffffffffffffffffffffffff1673ffffffffffffffffffffffffffffffffffffffff1681526020019081526020016000206000828254610f0c9190612504565b92505081905550816002600083815260200190815260200160002060006101000a81548173ffffffffffffffffffffffffffffffffffffffff021916908373ffffffffffffffffffffffffffffffffffffffff160217905550808273ffffffffffffffffffffffffffffffffffffffff168473ffffffffffffffffffffffffffffffffffffffff167fddf252ad1be2c89b69c2b068fc378daa952ba7f163c4a11628f55a4df523b3ef60405160405180910390a4610fcb8383836114f0565b505050565b8173ffffffffffffffffffffffffffffffffffffffff168373ffffffffffffffffffffffffffffffffffffffff16141561103f576040517f08c379a0000000000000000000000000000000000000000000000000000000008152600401611036906125a6565b60405180910390fd5b80600560008573ffffffffffffffffffffffffffffffffffffffff1673ffffffffffffffffffffffffffffffffffffffff16815260200190815260200160002060008473ffffffffffffffffffffffffffffffffffffffff1673ffffffffffffffffffffffffffffffffffffffff16815260200190815260200160002060006101000a81548160ff0219169083151502179055508173ffffffffffffffffffffffffffffffffffffffff168373ffffffffffffffffffffffffffffffffffffffff167f17307eab39ab6107e8899845ad3d59bd9653f200f220920489ca2b5937696c318360405161113091906117f7565b60405180910390a3505050565b611148848484610d69565b611154848484846114f5565b611193576040517f08c379a000000000000000000000000000000000000000000000000000000000815260040161118a90612638565b60405180910390fd5b50505050565b606060405180602001604052806000815250905090565b606060008214156111f8576040518060400160405280600181526020017f3000000000000000000000000000000000000000000000000000000000000000815250905061130c565b600082905060005b6000821461122a57808061121390612658565b915050600a8261122391906126d0565b9150611200565b60008167ffffffffffffffff81111561124657611245611b18565b5b6040519080825280601f01601f1916602001820160405280156112785781602001600182028036833780820191505090505b5090505b600085146113055760018261129191906124d0565b9150600a856112a09190612701565b60306112ac9190612504565b60f81b8183815181106112c2576112c1612732565b5b60200101907effffffffffffffffffffffffffffffffffffffffffffffffffffffffffffff1916908160001a905350600a856112fe91906126d0565b945061127c565b8093505050505b919050565b600073ffffffffffffffffffffffffffffffffffffffff168273ffffffffffffffffffffffffffffffffffffffff161415611381576040517f08c379a0000000000000000000000000000000000000000000000000000000008152600401611378906127ad565b60405180910390fd5b61138a81610b5e565b156113ca576040517f08c379a00000000000000000000000000000000000000000000000000000000081526004016113c190612819565b60405180910390fd5b6113d6600083836114eb565b6001600360008473ffffffffffffffffffffffffffffffffffffffff1673ffffffffffffffffffffffffffffffffffffffff16815260200190815260200160002060008282546114269190612504565b92505081905550816002600083815260200190815260200160002060006101000a81548173ffffffffffffffffffffffffffffffffffffffff021916908373ffffffffffffffffffffffffffffffffffffffff160217905550808273ffffffffffffffffffffffffffffffffffffffff16600073ffffffffffffffffffffffffffffffffffffffff167fddf252ad1be2c89b69c2b068fc378daa952ba7f163c4a11628f55a4df523b3ef60405160405180910390a46114e7600083836114f0565b5050565b505050565b505050565b60006115168473ffffffffffffffffffffffffffffffffffffffff1661167d565b15611670578373ffffffffffffffffffffffffffffffffffffffff1663150b7a0261153f610bca565b8786866040518563ffffffff1660e01b8152600401611561949392919061288e565b6020604051808303816000875af192505050801561159d57506040513d601f19601f8201168201806040525081019061159a91906128ef565b60015b611620573d80600081146115cd576040519150601f19603f3d011682016040523d82523d6000602084013e6115d2565b606091505b50600081511415611618576040517f08c379a000000000000000000000000000000000000000000000000000000000815260040161160f90612638565b60405180910390fd5b805181602001fd5b63150b7a0260e01b7bffffffffffffffffffffffffffffffffffffffffffffffffffffffff1916817bffffffffffffffffffffffffffffffffffffffffffffffffffffffff191614915050611675565b600190505b949350505050565b6000808273ffffffffffffffffffffffffffffffffffffffff163b119050919050565b8280546116ac90611e32565b90600052602060002090601f0160209004810192826116ce5760008555611715565b82601f106116e757805160ff1916838001178555611715565b82800160010185558215611715579182015b828111156117145782518255916020019190600101906116f9565b5b5090506117229190611726565b5090565b5b8082111561173f576000816000905550600101611727565b5090565b6000604051905090565b600080fd5b600080fd5b60007fffffffff0000000000000000000000000000000000000000000000000000000082169050919050565b61178c81611757565b811461179757600080fd5b50565b6000813590506117a981611783565b92915050565b6000602082840312156117c5576117c461174d565b5b60006117d38482850161179a565b91505092915050565b60008115159050919050565b6117f1816117dc565b82525050565b600060208201905061180c60008301846117e8565b92915050565b600081519050919050565b600082825260208201905092915050565b60005b8381101561184c578082015181840152602081019050611831565b8381111561185b576000848401525b50505050565b6000601f19601f8301169050919050565b600061187d82611812565b611887818561181d565b935061189781856020860161182e565b6118a081611861565b840191505092915050565b600060208201905081810360008301526118c58184611872565b905092915050565b6000819050919050565b6118e0816118cd565b81146118eb57600080fd5b50565b6000813590506118fd816118d7565b92915050565b6000602082840312156119195761191861174d565b5b6000611927848285016118ee565b91505092915050565b600073ffffffffffffffffffffffffffffffffffffffff82169050919050565b600061195b82611930565b9050919050565b61196b81611950565b82525050565b60006020820190506119866000830184611962565b92915050565b61199581611950565b81146119a057600080fd5b50565b6000813590506119b28161198c565b92915050565b600080604083850312156119cf576119ce61174d565b5b60006119dd858286016119a3565b92505060206119ee858286016118ee565b9150509250929050565b600080600060608486031215611a1157611a1061174d565b5b6000611a1f868287016119a3565b9350506020611a30868287016119a3565b9250506040611a41868287016118ee565b9150509250925092565b600060208284031215611a6157611a6061174d565b5b6000611a6f848285016119a3565b91505092915050565b611a81816118cd565b82525050565b6000602082019050611a9c6000830184611a78565b92915050565b611aab816117dc565b8114611ab657600080fd5b50565b600081359050611ac881611aa2565b92915050565b60008060408385031215611ae557611ae461174d565b5b6000611af3858286016119a3565b9250506020611b0485828601611ab9565b9150509250929050565b600080fd5b600080fd5b7f4e487b7100000000000000000000000000000000000000000000000000000000600052604160045260246000fd5b611b5082611861565b810181811067ffffffffffffffff82111715611b6f57611b6e611b18565b5b80604052505050565b6000611b82611743565b9050611b8e8282611b47565b919050565b600067ffffffffffffffff821115611bae57611bad611b18565b5b611bb782611861565b9050602081019050919050565b82818337600083830152505050565b6000611be6611be184611b93565b611b78565b905082815260208101848484011115611c0257611c01611b13565b5b611c0d848285611bc4565b509392505050565b600082601f830112611c2a57611c29611b0e565b5b8135611c3a848260208601611bd3565b91505092915050565b60008060008060808587031215611c5d57611c5c61174d565b5b6000611c6b878288016119a3565b9450506020611c7c878288016119a3565b9350506040611c8d878288016118ee565b925050606085013567ffffffffffffffff811115611cae57611cad611752565b5b611cba87828801611c15565b91505092959194509250565b600067ffffffffffffffff821115611ce157611ce0611b18565b5b611cea82611861565b9050602081019050919050565b6000611d0a611d0584611cc6565b611b78565b905082815260208101848484011115611d2657611d25611b13565b5b611d31848285611bc4565b509392505050565b600082601f830112611d4e57611d4d611b0e565b5b8135611d5e848260208601611cf7565b91505092915050565b60008060408385031215611d7e57611d7d61174d565b5b6000611d8c858286016118ee565b925050602083013567ffffffffffffffff811115611dad57611dac611752565b5b611db985828601611d39565b9150509250929050565b60008060408385031215611dda57611dd961174d565b5b6000611de8858286016119a3565b9250506020611df9858286016119a3565b9150509250929050565b7f4e487b7100000000000000000000000000000000000000000000000000000000600052602260045260246000fd5b60006002820490506001821680611e4a57607f821691505b60208210811415611e5e57611e5d611e03565b5b50919050565b7f4552433732313a20617070726f76656420717565727920666f72206e6f6e657860008201527f697374656e7420746f6b656e0000000000000000000000000000000000000000602082015250565b6000611ec0602c8361181d565b9150611ecb82611e64565b604082019050919050565b60006020820190508181036000830152611eef81611eb3565b9050919050565b7f4552433732313a20617070726f76616c20746f2063757272656e74206f776e6560008201527f7200000000000000000000000000000000000000000000000000000000000000602082015250565b6000611f5260218361181d565b9150611f5d82611ef6565b604082019050919050565b60006020820190508181036000830152611f8181611f45565b9050919050565b7f4552433732313a20617070726f76652063616c6c6572206973206e6f74206f7760008201527f6e6572206e6f7220617070726f76656420666f7220616c6c0000000000000000602082015250565b6000611fe460388361181d565b9150611fef82611f88565b604082019050919050565b6000602082019050818103600083015261201381611fd7565b9050919050565b7f4552433732313a207472616e736665722063616c6c6572206973206e6f74206f60008201527f776e6572206e6f7220617070726f766564000000000000000000000000000000602082015250565b600061207660318361181d565b91506120818261201a565b604082019050919050565b600060208201905081810360008301526120a581612069565b9050919050565b7f4552433732313a206f776e657220717565727920666f72206e6f6e657869737460008201527f656e7420746f6b656e0000000000000000000000000000000000000000000000602082015250565b600061210860298361181d565b9150612113826120ac565b604082019050919050565b60006020820190508181036000830152612137816120fb565b9050919050565b7f4552433732313a2062616c616e636520717565727920666f7220746865207a6560008201527f726f206164647265737300000000000000000000000000000000000000000000602082015250565b600061219a602a8361181d565b91506121a58261213e565b604082019050919050565b600060208201905081810360008301526121c98161218d565b9050919050565b7f4552433732314d657461646174613a2055524920717565727920666f72206e6f60008201527f6e6578697374656e7420746f6b656e0000000000000000000000000000000000602082015250565b600061222c602f8361181d565b9150612237826121d0565b604082019050919050565b6000602082019050818103600083015261225b8161221f565b9050919050565b600081905092915050565b600061227882611812565b6122828185612262565b935061229281856020860161182e565b80840191505092915050565b60006122aa828561226d565b91506122b6828461226d565b91508190509392505050565b60006040820190506122d76000830185611962565b6122e46020830184611a78565b9392505050565b7f4552433732313a206f70657261746f7220717565727920666f72206e6f6e657860008201527f697374656e7420746f6b656e0000000000000000000000000000000000000000602082015250565b6000612347602c8361181d565b9150612352826122eb565b604082019050919050565b600060208201905081810360008301526123768161233a565b9050919050565b7f4552433732313a207472616e736665722066726f6d20696e636f72726563742060008201527f6f776e6572000000000000000000000000000000000000000000000000000000602082015250565b60006123d960258361181d565b91506123e48261237d565b604082019050919050565b60006020820190508181036000830152612408816123cc565b9050919050565b7f4552433732313a207472616e7366657220746f20746865207a65726f2061646460008201527f7265737300000000000000000000000000000000000000000000000000000000602082015250565b600061246b60248361181d565b91506124768261240f565b604082019050919050565b6000602082019050818103600083015261249a8161245e565b9050919050565b7f4e487b7100000000000000000000000000000000000000000000000000000000600052601160045260246000fd5b60006124db826118cd565b91506124e6836118cd565b9250828210156124f9576124f86124a1565b5b828203905092915050565b600061250f826118cd565b915061251a836118cd565b9250827fffffffffffffffffffffffffffffffffffffffffffffffffffffffffffffffff0382111561254f5761254e6124a1565b5b828201905092915050565b7f4552433732313a20617070726f766520746f2063616c6c657200000000000000600082015250565b600061259060198361181d565b915061259b8261255a565b602082019050919050565b600060208201905081810360008301526125bf81612583565b9050919050565b7f4552433732313a207472616e7366657220746f206e6f6e20455243373231526560008201527f63656976657220696d706c656d656e7465720000000000000000000000000000602082015250565b600061262260328361181d565b915061262d826125c6565b604082019050919050565b6000602082019050818103600083015261265181612615565b9050919050565b6000612663826118cd565b91507fffffffffffffffffffffffffffffffffffffffffffffffffffffffffffffffff821415612696576126956124a1565b5b600182019050919050565b7f4e487b7100000000000000000000000000000000000000000000000000000000600052601260045260246000fd5b60006126db826118cd565b91506126e6836118cd565b9250826126f6576126f56126a1565b5b828204905092915050565b600061270c826118cd565b9150612717836118cd565b925082612727576127266126a1565b5b828206905092915050565b7f4e487b7100000000000000000000000000000000000000000000000000000000600052603260045260246000fd5b7f4552433732313a206d696e7420746f20746865207a65726f2061646472657373600082015250565b600061279760208361181d565b91506127a282612761565b602082019050919050565b600060208201905081810360008301526127c68161278a565b9050919050565b7f4552433732313a20746f6b656e20616c7265616479206d696e74656400000000600082015250565b6000612803601c8361181d565b915061280e826127cd565b602082019050919050565b60006020820190508181036000830152612832816127f6565b9050919050565b600081519050919050565b600082825260208201905092915050565b600061286082612839565b61286a8185612844565b935061287a81856020860161182e565b61288381611861565b840191505092915050565b60006080820190506128a36000830187611962565b6128b06020830186611962565b6128bd6040830185611a78565b81810360608301526128cf8184612855565b905095945050505050565b6000815190506128e981611783565b92915050565b6000602082840312156129055761290461174d565b5b6000612913848285016128da565b9150509291505056fea2646970667358221220e463201dd5f90bdfe3445fd3d548ce32aba6fefa8158548730f02191e1bbfb1f64736f6c634300080b0033",
  "immutableReferences": {},
  "source": "// SPDX-License-Identifier: MIT\npragma solidity >=0.4.22 <0.9.0;\n\nimport \"@openzeppelin/contracts/token/ERC721/ERC721.sol\";\n\ncontract DeedRepository is ERC721{\n\n  mapping (uint256 => string) private _tokenURIs;\n\n  /**\n    * @dev Created a DeedRepository with a name and symbol\n    * @param _name string represents the name of the repository\n    * @param _symbol string represents the symbol of the repository\n    */\n    constructor(string memory _name, string memory _symbol) \n        ERC721(_name, _symbol) {}\n    \n    /**\n    * @dev Public function to register a new deed\n    * @dev Call the ERC721Token minter\n    * @param _tokenId uint256 represents a specific deed\n    * @param _uri string containing metadata/uri\n    */\n    function registerDeed(uint256 _tokenId, string memory _uri) public {\n        _mint(msg.sender, _tokenId);\n        addDeedMetadata(_tokenId, _uri);\n        emit DeedRegistered(msg.sender, _tokenId);\n    }\n\n    /**\n    * @dev Public function to add metadata to a deed\n    * @param _tokenId represents a specific deed\n    * @param _uri text which describes the characteristics of a given deed\n    * @return whether the deed metadata was added to the repository\n    */\n    function addDeedMetadata(uint256 _tokenId, string memory _uri) public returns(bool){\n        _tokenURIs[_tokenId] = _uri;\n        return true;\n    }\n\n    /**\n    * @dev Event is triggered if deed/token is registered\n    * @param _by address of the registrar\n    * @param _tokenId uint256 represents a specific deed\n    */\n    event DeedRegistered(address _by, uint256 _tokenId);\n}\n",
  "sourcePath": "C:\\Users\\Brijesh Prajapati\\Documents\\ms_in_cs\\cpsc559\\auction_dapp\\backend\\contracts\\DeedRepository.sol",
  "compiler": {
    "name": "solc",
    "version": "0.8.11+commit.d7f03943.Emscripten.clang"
  },
  "schemaVersion": "3.4.4",
  "updatedAt": "2022-04-29T23:06:39.266Z",
  "networkType": "ethereum",
  "devdoc": {
    "events": {
      "DeedRegistered(address,uint256)": {
        "details": "Event is triggered if deed/token is registered",
        "params": {
          "_by": "address of the registrar",
          "_tokenId": "uint256 represents a specific deed"
        }
      }
    },
    "kind": "dev",
    "methods": {
      "addDeedMetadata(uint256,string)": {
        "details": "Public function to add metadata to a deed",
        "params": {
          "_tokenId": "represents a specific deed",
          "_uri": "text which describes the characteristics of a given deed"
        },
        "returns": {
          "_0": "whether the deed metadata was added to the repository"
        }
      },
      "approve(address,uint256)": {
        "details": "See {IERC721-approve}."
      },
      "balanceOf(address)": {
        "details": "See {IERC721-balanceOf}."
      },
      "constructor": {
        "details": "Created a DeedRepository with a name and symbol",
        "params": {
          "_name": "string represents the name of the repository",
          "_symbol": "string represents the symbol of the repository"
        }
      },
      "getApproved(uint256)": {
        "details": "See {IERC721-getApproved}."
      },
      "isApprovedForAll(address,address)": {
        "details": "See {IERC721-isApprovedForAll}."
      },
      "name()": {
        "details": "See {IERC721Metadata-name}."
      },
      "ownerOf(uint256)": {
        "details": "See {IERC721-ownerOf}."
      },
      "registerDeed(uint256,string)": {
        "details": "Public function to register a new deedCall the ERC721Token minter",
        "params": {
          "_tokenId": "uint256 represents a specific deed",
          "_uri": "string containing metadata/uri"
        }
      },
      "safeTransferFrom(address,address,uint256)": {
        "details": "See {IERC721-safeTransferFrom}."
      },
      "safeTransferFrom(address,address,uint256,bytes)": {
        "details": "See {IERC721-safeTransferFrom}."
      },
      "setApprovalForAll(address,bool)": {
        "details": "See {IERC721-setApprovalForAll}."
      },
      "supportsInterface(bytes4)": {
        "details": "See {IERC165-supportsInterface}."
      },
      "symbol()": {
        "details": "See {IERC721Metadata-symbol}."
      },
      "tokenURI(uint256)": {
        "details": "See {IERC721Metadata-tokenURI}."
      },
      "transferFrom(address,address,uint256)": {
        "details": "See {IERC721-transferFrom}."
      }
    },
    "version": 1
  },
  "userdoc": {
    "kind": "user",
    "methods": {},
    "version": 1
  }
}